:100000000EC028C027C026C025C024C023C022C0DF
:1000100021C020C020C01EC01DC01CC01BC0112498
:100020001FBECFE5D1E0DEBFCDBF10E0A0E6B0E05F
:10003000E8E4F6E002C005900D92A43AB107D9F7C2
:1000400010E0A4EAB0E001C01D92A83BB107E1F7BF
:10005000E9D0F8C2D5CF1F920F920FB60F9211249C
:100060001092A4000F900FBE0F901F90189587B3A9
:100070008B6087BB87B38B7E87BB18BA8AB58260DB
:100080008ABD83B7836083BF89B7806189BF12BE91
:100090008FE089BD0895C19820E030E090E0AC0188
:1000A000022E02C0559547950A94E2F740FDC09A8A
:1000B000C39A48B3467F48BB2F5F3F4F2830310576
:1000C00071F780E090E070E09B01082E02C035954A
:1000D00027950A94E2F720FDC09AC39A28B3267F99
:1000E00028BB01968830910579F7C19AC198089587
:1000F0001092A6001092A50080E090E021E030E090
:10010000FC01E855FF4F50814091A700451758F476
:100110006091A600A901082E01C0440F0A94EAF7D5
:10012000642B6093A600FC01E055FF4F5081409185
:10013000A700451758F46091A500A901082E01C039
:10014000440F0A94EAF7642B6093A5000196883067
:100150009105B1F68091A700803430F48091A7001A
:100160008F5F8093A70008951092A700089580E004
:1001700090E0FC01E855FF4F108201968031910517
:10018000C1F7B6DF6091A5008091A60084CFFC0185
:10019000DB019081990F908386B321E08295817075
:1001A0008227892B80839C91990F9C9386B382FB35
:1001B000882780F98227892B8C930895FC01208160
:1001C000277C273021F42FEF208381E0089580E001
:1001D0000895FC012081277C203C19F4108281E0E5
:1001E000089580E00895FC0181E09081911180E004
:1001F0000895FC0181E090819F3F09F080E008951F
:10020000FC0180818F3011F4108208958F5F80830C
:100210000895FC018081811102C08FE001C08150EE
:1002200080830895CF93DF93CDB7DEB7C754D1094C
:100230000FB6F894DEBF0FBECDBF19DF98DF28964A
:100240001FAE289727961FAE279726961FAE269794
:1002500088E0E0E6F0E0DE01DD9601900D928A95FF
:10026000E1F7B12CC12C07E0A12CE12CD12CF12C11
:1002700010E038E2532E812C40E8242E312C50E43B
:10028000952E6DE3662E712C6C0E7D1E88E0680E37
:10029000711C2EDF6091A5008091A600FCDE851008
:1002A000C6C1BE016B5B7F4FCE018A5B9F4F6FDF84
:1002B000E1105FC0CE018A5B9F4F80DF882399F0F9
:1002C0002896EFAD2897F0E0E855FF4F1082CE0159
:1002D000895B9F4F9EDF2896EFAD2897F0E0E855A9
:1002E000FF4F80E18083CE018B5B9F4F67DF8823C8
:1002F00099F02896EFAD2897F0E0E855FF4F10826F
:10030000CE01895B9F4F7CDF2896EFAD2897F0E008
:10031000E855FF4F80E180831E31A0F02896EFADB5
:100320002897F0E0E855FF4F1082CE01895B9F4F80
:1003300070DF2896EFAD2897F0E0E855FF4F80E199
:10034000808310E09DE19F1508F02AC12896EFAD4B
:100350002897F0E0E855FF4F1082CE01895B9F4F50
:100360004FDF2896EFAD2897F0E0E855FF4F80E18A
:10037000D1C0A1E0EA124FC0A016E0F0CE01CD96A8
:100380002C012896EFAD2897F0E0D2018D912D0138
:10039000E855FF4F8083CE01895B9F4F31DF4614C4
:1003A000570479F727E0A22ECE01895B9F4F31DFFA
:1003B000AA94D1F7A394CE018B5B9F4FFFDE90E010
:1003C00021E030E0011102C020E030E02823392391
:1003D000232B09F00150CE018A5B9F4FEFDE21E015
:1003E00030E00F3F11F420E030E090E082239323CF
:1003F000892B09F00F5F002341F0BDE1BF1510F418
:100400000150F12C0F3F09F4CBC01E3108F4C8C0D5
:100410000F5F10E0C5C082E0E8127EC0CE018A5BAB
:100420009F4FCCDE8823E1F02896EFAD2897F0E0CF
:10043000E855FF4F8081833079F030F4882351F004
:10044000813069F484E009C0843031F0803139F4BE
:10045000908206C081E001C080E1808301C01082EB
:100460001E31E8F02896EFAD2897F0E0E855FF4FF1
:100470008081833079F030F4882351F0813069F441
:1004800084E009C0843031F0803139F4908206C0B4
:1004900081E001C080E1808301C0108210E0CE01C4
:1004A0008B5B9F4F8BDE8823C9F02896EFAD289792
:1004B000F0E0E855FF4F8081833009F41082CE01CF
:1004C000895B9F4F9DDE2896EFAD2897F0E0E855B9
:1004D000FF4F8081811102C083E080839DE19F15E1
:1004E00008F05EC02896EFAD2897F0E0E855FF4F82
:1004F0008081833009F41082CE01895B9F4F80DEBA
:100500002896EFAD2897F0E0E855FF4F80818111E4
:1005100097C083E0808394C0A3E0EA1241C0E8E67C
:10052000F0E0DE0111968CE301900D928A95E1F7DF
:10053000EC2DF0E0EE0FFF1F81E090E08C0F9D1F8F
:10054000E80FF91FA081B0E0618170E088E090E0E1
:10055000FC01389791010E2E02C0359527950A941B
:10056000E2F7A9014A235B23E855FF4F452B11F021
:10057000908201C0108226233723FC01E855FF4FEB
:10058000232B11F0908201C01082019680319105D9
:10059000F9F6C3949EE19C1508F4C12C8824839439
:1005A00026968FAD2697811106C027968FAD279787
:1005B000811101C0D394A7E7AD1518F5B2E0BE15BF
:1005C00018F489E1B81206C0E39492E0E91621F02C
:1005D000B12C05C0B39403C0CADDB12C11C0A3E097
:1005E000AE1570F4C4DD2896EFAD2897F0E0E8551D
:1005F000FF4FBFE1B083E12CD12C88E2882E01C0EF
:10060000D12C26968FAD2697811101C0F3942796A1
:100610009FAD2797911102C01F5F04C09F3F11F447
:10062000D12C10E08F3F31F4D12CF12C03C0882D58
:10063000852C01C080E0582C88248394880E29CE14
:08064000F12CAECFF894FFCFBE
:10064800000104104010040140046005F00E381C3D
:100658001C380BD006601F700DF00DF01F7006607F
:100668000BD01C38381CF00E600540040000000058
:100678000000000000000000000000000000000072
:04068800000000006E
:00000001FF
