:100000000EC028C027C026C025C024C023C022C0DF
:1000100021C020C01FC01EC01DC01CC01BC0112499
:100020001FBECFE5D1E0DEBFCDBF10E0A0E6B0E05F
:10003000EEE6F1E002C005900D92A037B107D9F7C6
:1000400010E0A0E7B0E001C01D92A337B107E1F7CF
:1000500063D08BC0D5CF87B38B6087BB18BA0895A8
:10006000C19827E030E090E0AC01022E02C0559527
:1000700047950A94E2F740FDC09AC39A48B3467F79
:1000800048BB2150310980F787E090E070E09B0188
:10009000082E02C0359527950A94E2F720FDC09AF4
:1000A000C39A28B3267F28BB019788F7C19AC198C5
:1000B0000895CF9360917200C0E0E0E6F0E0A8E61A
:1000C000B0E070E080E090E021E030E04191641722
:1000D00038F4A901082E01C0440F0A94EAF7C42B92
:1000E0004D91641738F4A901082E01C0440F0A94F9
:1000F000EAF7742B01968830910541F7C09371009F
:1001000070937000653620F46F5F6093720002C0D8
:1001100010927200CF9108959EDFC12CD12C7601F0
:10012000C1E0C7DF609170008091710099DF8FEFAF
:10013000C81AD80AE80AF80A84EFC81681E0D80677
:10014000E104F10471F7E0E6F0E080818F5F853132
:1001500010F4808301C0C083319680E0E037F80757
:0E016000A1F7C12CD12C7601DCCFF894FFCF93
:10016E00141C22282C3034383C3F4245484A4D500E
:00000001FF
