:100000000EC028C027C026C025C024C023C022C0DF
:1000100021C020C020C01EC01DC01CC01BC0112498
:100020001FBECFE5D1E0DEBFCDBF10E0A0E6B0E05F
:10003000E8E6F2E002C005900D92A037B107D9F7CB
:1000400010E0A0E7B0E001C01D92A637B107E1F7CC
:10005000D5D008C1D5CF1F920F920FB60F921124A1
:100060008F9381E0809370008F910F900FBE0F905F
:100070001F90189587B38B6087BB87B38B7E87BB38
:1000800018BA8AB582608ABD83B7836083BF89B797
:10009000806189BF12BE8FE089BD789408958091F8
:1000A0007200880F8093720080917100880F809396
:1000B00071002091720086B391E08295817089274A
:1000C000822B809372002091710086B382FB882777
:1000D00080F98927822B8093710080917200877C40
:1000E000873029F48FEF8093720081E001C080E0B7
:1000F00090917100977C973021F482609FEF9093EC
:1001000071000895C19820E030E090E0AC01022E2B
:1001100002C0559547950A94E2F740FDC09AC39AEC
:1001200048B3467F48BB2F5F3F4F2830310571F7FA
:1001300080E090E070E09B01082E02C03595279585
:100140000A94E2F720FDC09AC39A28B3267F28BB01
:1001500001968830910579F7C19AC1980895109257
:1001600074001092730080E090E021E030E0FC0128
:10017000E05AFF4F508140917500451758F4609147
:100180007400A901082E01C0440F0A94EAF7642BF9
:1001900060937400FC01E859FF4F50814091750055
:1001A000451758F460917300A901082E01C0440F4F
:1001B0000A94EAF7642B60937300019688309105E6
:1001C000B1F680917500803430F4809175008F5FB6
:1001D00080937500089510927500089580E090E076
:1001E000FC01E05AFF4F1082019680319105C1F762
:1001F000B6DF609173008091740084CF3BDFEEDF47
:10020000C0E0DAE0809170008823E1F31092700082
:1002100046DF80FF0FC0EC2FF0E0E05AFF4F108266
:10022000CC2311F0C15001C0CFE0EC2FF0E0E05A38
:10023000FF4FD08381FF0FC0EC2FF0E0E05AFF4F5B
:100240001082CF3011F0CF5F01C0C0E0EC2FF0E0A2
:10025000E05AFF4FD08383DF609173008091740078
:0802600051DFD0CFF894FFCF6D
:10026800141C22282C3034383C3F4245484A4D5013
:00000001FF
