:100000000EC020C01FC01EC01DC01CC01BC01AC017
:1000100019C018C017C016C015C014C013C01124D1
:100020001FBECFE5D1E0DEBFCDBF10E0A0E6B0E05F
:10003000E6E5F1E002C005900D92A039B107D9F7CD
:1000400032D087C0DDCF87B38B6087BB18BA0895E5
:10005000C19820E030E090E0AC01022E02C055953E
:1000600047950A94E2F740FDC09AC39AC098C39896
:100070002F5F3F4F2830310579F780E090E070E046
:100080009B01082E02C0359527950A94E2F720FDC2
:10009000C09AC39AC098C39801968830910581F799
:1000A000C19AC1980895CF93DF93CDB7DEB7E0979B
:1000B0000FB6F894DEBF0FBECDBFC5DF88E1E0E626
:1000C000F0E0DE01599601900D928A95E1F788E102
:1000D000E8E7F0E0DE01119601900D928A95E1F7D4
:1000E00080E090E0DC0120E030E0C12CD12C7601F2
:1000F0002F5F3F4F2A303105D9F7803523EC920727
:10010000A105B10501F5A1E0B0E0AC0FBD1FAC0D3C
:10011000BD1DE9E1F0E0EC0FFD1FEC0DFD1D6C9144
:10012000808196DF8FEFC81AD80AE80AF80A80E0C3
:1001300090E0DC0127E1C216D104E104F10419F4D6
:10014000C12CD12C76010196A11DB11D20E030E01B
:06015000CFCFF894FFCFB1
:1001560080C06030180C060301000000000000009B
:100166000000000000000000000000000000000089
:1001760080C06030180C060301000000000000007B
:00000001FF
